{
  "_format": "hh-sol-artifact-1",
  "contractName": "ColorCatcher",
  "sourceName": "contracts/ColorCatcher.sol",
  "abi": [
    {
      "inputs": [],
      "stateMutability": "nonpayable",
      "type": "constructor"
    },
    {
      "anonymous": false,
      "inputs": [
        {
          "indexed": true,
          "internalType": "address",
          "name": "player",
          "type": "address"
        },
        {
          "indexed": false,
          "internalType": "uint256",
          "name": "newScore",
          "type": "uint256"
        }
      ],
      "name": "ScoreUpdated",
      "type": "event"
    },
    {
      "inputs": [],
      "name": "getScore",
      "outputs": [
        {
          "internalType": "uint256",
          "name": "",
          "type": "uint256"
        }
      ],
      "stateMutability": "view",
      "type": "function"
    },
    {
      "inputs": [],
      "name": "owner",
      "outputs": [
        {
          "internalType": "address",
          "name": "",
          "type": "address"
        }
      ],
      "stateMutability": "view",
      "type": "function"
    },
    {
      "inputs": [],
      "name": "resetScore",
      "outputs": [],
      "stateMutability": "nonpayable",
      "type": "function"
    },
    {
      "inputs": [],
      "name": "score",
      "outputs": [
        {
          "internalType": "uint256",
          "name": "",
          "type": "uint256"
        }
      ],
      "stateMutability": "view",
      "type": "function"
    },
    {
      "inputs": [
        {
          "internalType": "uint256",
          "name": "newScore",
          "type": "uint256"
        }
      ],
      "name": "updateScore",
      "outputs": [],
      "stateMutability": "nonpayable",
      "type": "function"
    }
  ],
  "bytecode": "0x608060405234801561001057600080fd5b5033600160006101000a81548173ffffffffffffffffffffffffffffffffffffffff021916908373ffffffffffffffffffffffffffffffffffffffff16021790555060008081905550610474806100686000396000f3fe608060405234801561001057600080fd5b50600436106100575760003560e01c8063617706cc1461005c5780638da5cb5b14610066578063afd8206714610084578063efedc669146100a2578063f853e34d146100c0575b600080fd5b6100646100dc565b005b61006e6101e6565b60405161007b91906102b4565b60405180910390f35b61008c61020c565b60405161009991906102e8565b60405180910390f35b6100aa610215565b6040516100b791906102e8565b60405180910390f35b6100da60048036038101906100d59190610334565b61021b565b005b600160009054906101000a900473ffffffffffffffffffffffffffffffffffffffff1673ffffffffffffffffffffffffffffffffffffffff163373ffffffffffffffffffffffffffffffffffffffff161461016c576040517f08c379a0000000000000000000000000000000000000000000000000000000008152600401610163906103be565b60405180910390fd5b60008081905550600160009054906101000a900473ffffffffffffffffffffffffffffffffffffffff1673ffffffffffffffffffffffffffffffffffffffff167f66ead48cfe0e1d1aa8bad492e906c348dfcfeecbf3b7b2cdf9b1f3cfa42a294560006040516101dc9190610423565b60405180910390a2565b600160009054906101000a900473ffffffffffffffffffffffffffffffffffffffff1681565b60008054905090565b60005481565b806000819055503373ffffffffffffffffffffffffffffffffffffffff167f66ead48cfe0e1d1aa8bad492e906c348dfcfeecbf3b7b2cdf9b1f3cfa42a29458260405161026891906102e8565b60405180910390a250565b600073ffffffffffffffffffffffffffffffffffffffff82169050919050565b600061029e82610273565b9050919050565b6102ae81610293565b82525050565b60006020820190506102c960008301846102a5565b92915050565b6000819050919050565b6102e2816102cf565b82525050565b60006020820190506102fd60008301846102d9565b92915050565b600080fd5b610311816102cf565b811461031c57600080fd5b50565b60008135905061032e81610308565b92915050565b60006020828403121561034a57610349610303565b5b60006103588482850161031f565b91505092915050565b600082825260208201905092915050565b7f596f7520617265206e6f7420746865206f776e65720000000000000000000000600082015250565b60006103a8601583610361565b91506103b382610372565b602082019050919050565b600060208201905081810360008301526103d78161039b565b9050919050565b6000819050919050565b6000819050919050565b600061040d610408610403846103de565b6103e8565b6102cf565b9050919050565b61041d816103f2565b82525050565b60006020820190506104386000830184610414565b9291505056fea264697066735822122027e2d6e37b3d0b8a9514fc695ee9827e289ac1aaf5d5cd892fe7a2565ccc3a6b64736f6c63430008130033",
  "linkReferences": {},
  "deployedLinkReferences": {}
}